{
  "address": "0x74c56Cd305c20D38A979245Ec58708c6bA164206",
  "abi": [
    {
      "inputs": [
        {
          "internalType": "address",
          "name": "_router",
          "type": "address"
        },
        {
          "internalType": "address",
          "name": "_link",
          "type": "address"
        },
        {
          "internalType": "address",
          "name": "nftAddr",
          "type": "address"
        }
      ],
      "stateMutability": "nonpayable",
      "type": "constructor"
    },
    {
      "inputs": [
        {
          "internalType": "address",
          "name": "owner",
          "type": "address"
        },
        {
          "internalType": "address",
          "name": "target",
          "type": "address"
        },
        {
          "internalType": "uint256",
          "name": "value",
          "type": "uint256"
        }
      ],
      "name": "FailedToWithdrawEth",
      "type": "error"
    },
    {
      "inputs": [],
      "name": "InvalidReceiverAddress",
      "type": "error"
    },
    {
      "inputs": [
        {
          "internalType": "address",
          "name": "router",
          "type": "address"
        }
      ],
      "name": "InvalidRouter",
      "type": "error"
    },
    {
      "inputs": [
        {
          "internalType": "uint256",
          "name": "currentBalance",
          "type": "uint256"
        },
        {
          "internalType": "uint256",
          "name": "calculatedFees",
          "type": "uint256"
        }
      ],
      "name": "NotEnoughBalance",
      "type": "error"
    },
    {
      "inputs": [],
      "name": "NothingToWithdraw",
      "type": "error"
    },
    {
      "anonymous": false,
      "inputs": [
        {
          "indexed": true,
          "internalType": "bytes32",
          "name": "messageId",
          "type": "bytes32"
        },
        {
          "indexed": true,
          "internalType": "uint64",
          "name": "destinationChainSelector",
          "type": "uint64"
        },
        {
          "indexed": false,
          "internalType": "address",
          "name": "receiver",
          "type": "address"
        },
        {
          "indexed": false,
          "internalType": "bytes",
          "name": "text",
          "type": "bytes"
        },
        {
          "indexed": false,
          "internalType": "address",
          "name": "feeToken",
          "type": "address"
        },
        {
          "indexed": false,
          "internalType": "uint256",
          "name": "fees",
          "type": "uint256"
        }
      ],
      "name": "MessageSent",
      "type": "event"
    },
    {
      "anonymous": false,
      "inputs": [
        {
          "indexed": true,
          "internalType": "address",
          "name": "from",
          "type": "address"
        },
        {
          "indexed": true,
          "internalType": "address",
          "name": "to",
          "type": "address"
        }
      ],
      "name": "OwnershipTransferRequested",
      "type": "event"
    },
    {
      "anonymous": false,
      "inputs": [
        {
          "indexed": true,
          "internalType": "address",
          "name": "from",
          "type": "address"
        },
        {
          "indexed": true,
          "internalType": "address",
          "name": "to",
          "type": "address"
        }
      ],
      "name": "OwnershipTransferred",
      "type": "event"
    },
    {
      "anonymous": false,
      "inputs": [
        {
          "indexed": false,
          "internalType": "uint256",
          "name": "tokenId",
          "type": "uint256"
        },
        {
          "indexed": false,
          "internalType": "address",
          "name": "newOwner",
          "type": "address"
        }
      ],
      "name": "TokenUnlocked",
      "type": "event"
    },
    {
      "inputs": [],
      "name": "acceptOwnership",
      "outputs": [],
      "stateMutability": "nonpayable",
      "type": "function"
    },
    {
      "inputs": [
        {
          "components": [
            {
              "internalType": "bytes32",
              "name": "messageId",
              "type": "bytes32"
            },
            {
              "internalType": "uint64",
              "name": "sourceChainSelector",
              "type": "uint64"
            },
            {
              "internalType": "bytes",
              "name": "sender",
              "type": "bytes"
            },
            {
              "internalType": "bytes",
              "name": "data",
              "type": "bytes"
            },
            {
              "components": [
                {
                  "internalType": "address",
                  "name": "token",
                  "type": "address"
                },
                {
                  "internalType": "uint256",
                  "name": "amount",
                  "type": "uint256"
                }
              ],
              "internalType": "struct Client.EVMTokenAmount[]",
              "name": "destTokenAmounts",
              "type": "tuple[]"
            }
          ],
          "internalType": "struct Client.Any2EVMMessage",
          "name": "message",
          "type": "tuple"
        }
      ],
      "name": "ccipReceive",
      "outputs": [],
      "stateMutability": "nonpayable",
      "type": "function"
    },
    {
      "inputs": [],
      "name": "getLastReceivedMessageDetails",
      "outputs": [
        {
          "internalType": "bytes32",
          "name": "messageId",
          "type": "bytes32"
        },
        {
          "internalType": "string",
          "name": "text",
          "type": "string"
        }
      ],
      "stateMutability": "view",
      "type": "function"
    },
    {
      "inputs": [],
      "name": "getRouter",
      "outputs": [
        {
          "internalType": "address",
          "name": "",
          "type": "address"
        }
      ],
      "stateMutability": "view",
      "type": "function"
    },
    {
      "inputs": [
        {
          "internalType": "uint256",
          "name": "tokenId",
          "type": "uint256"
        },
        {
          "internalType": "address",
          "name": "newOwner",
          "type": "address"
        },
        {
          "internalType": "uint64",
          "name": "chainSelector",
          "type": "uint64"
        },
        {
          "internalType": "address",
          "name": "recevier",
          "type": "address"
        }
      ],
      "name": "lockAndSendNFT",
      "outputs": [
        {
          "internalType": "bytes32",
          "name": "",
          "type": "bytes32"
        }
      ],
      "stateMutability": "nonpayable",
      "type": "function"
    },
    {
      "inputs": [],
      "name": "nft",
      "outputs": [
        {
          "internalType": "contract MyToken",
          "name": "",
          "type": "address"
        }
      ],
      "stateMutability": "view",
      "type": "function"
    },
    {
      "inputs": [],
      "name": "owner",
      "outputs": [
        {
          "internalType": "address",
          "name": "",
          "type": "address"
        }
      ],
      "stateMutability": "view",
      "type": "function"
    },
    {
      "inputs": [
        {
          "internalType": "bytes4",
          "name": "interfaceId",
          "type": "bytes4"
        }
      ],
      "name": "supportsInterface",
      "outputs": [
        {
          "internalType": "bool",
          "name": "",
          "type": "bool"
        }
      ],
      "stateMutability": "pure",
      "type": "function"
    },
    {
      "inputs": [
        {
          "internalType": "address",
          "name": "to",
          "type": "address"
        }
      ],
      "name": "transferOwnership",
      "outputs": [],
      "stateMutability": "nonpayable",
      "type": "function"
    },
    {
      "inputs": [
        {
          "internalType": "address",
          "name": "_beneficiary",
          "type": "address"
        }
      ],
      "name": "withdraw",
      "outputs": [],
      "stateMutability": "nonpayable",
      "type": "function"
    },
    {
      "inputs": [
        {
          "internalType": "address",
          "name": "_beneficiary",
          "type": "address"
        },
        {
          "internalType": "address",
          "name": "_token",
          "type": "address"
        }
      ],
      "name": "withdrawToken",
      "outputs": [],
      "stateMutability": "nonpayable",
      "type": "function"
    },
    {
      "stateMutability": "payable",
      "type": "receive"
    }
  ],
  "transactionHash": "0xb27fc1bd7cd1beb8a7685cb515a0aeda5bd345f2554449f3a2d73a6393722d56",
  "args": [
    "0x0BF3dE8c5D3e8A2B34D2BEeB17ABfCeBaf363A59",
    "0x779877A7B0D9E8603169DdbD7836e478b4624789",
    "0xe8202dCb70AfCbF91B5BBb2597C0b5d9Fadd5406"
  ],
  "numDeployments": 1,
  "solcInputHash": "bd8087828be326b23929253ad9e56eb2",
  "bytecode": "0x60a060405234801561001057600080fd5b50604051612c30380380612c30833981810160405281019061003291906103ed565b3380600085600073ffffffffffffffffffffffffffffffffffffffff168173ffffffffffffffffffffffffffffffffffffffff16036100a95760006040517fd7f733340000000000000000000000000000000000000000000000000000000081526004016100a0919061044f565b60405180910390fd5b8073ffffffffffffffffffffffffffffffffffffffff1660808173ffffffffffffffffffffffffffffffffffffffff168152505050600073ffffffffffffffffffffffffffffffffffffffff168273ffffffffffffffffffffffffffffffffffffffff160361014d576040517f08c379a0000000000000000000000000000000000000000000000000000000008152600401610144906104c7565b60405180910390fd5b816000806101000a81548173ffffffffffffffffffffffffffffffffffffffff021916908373ffffffffffffffffffffffffffffffffffffffff160217905550600073ffffffffffffffffffffffffffffffffffffffff168173ffffffffffffffffffffffffffffffffffffffff16146101d1576101d08161025e60201b60201c565b5b50505081600460006101000a81548173ffffffffffffffffffffffffffffffffffffffff021916908373ffffffffffffffffffffffffffffffffffffffff16021790555080600560006101000a81548173ffffffffffffffffffffffffffffffffffffffff021916908373ffffffffffffffffffffffffffffffffffffffff160217905550505050610553565b3373ffffffffffffffffffffffffffffffffffffffff168173ffffffffffffffffffffffffffffffffffffffff16036102cc576040517f08c379a00000000000000000000000000000000000000000000000000000000081526004016102c390610533565b60405180910390fd5b80600160006101000a81548173ffffffffffffffffffffffffffffffffffffffff021916908373ffffffffffffffffffffffffffffffffffffffff1602179055508073ffffffffffffffffffffffffffffffffffffffff1660008054906101000a900473ffffffffffffffffffffffffffffffffffffffff1673ffffffffffffffffffffffffffffffffffffffff167fed8889f560326eb138920d842192f0eb3dd22b4f139c87a2c57538e05bae127860405160405180910390a350565b600080fd5b600073ffffffffffffffffffffffffffffffffffffffff82169050919050565b60006103ba8261038f565b9050919050565b6103ca816103af565b81146103d557600080fd5b50565b6000815190506103e7816103c1565b92915050565b6000806000606084860312156104065761040561038a565b5b6000610414868287016103d8565b9350506020610425868287016103d8565b9250506040610436868287016103d8565b9150509250925092565b610449816103af565b82525050565b60006020820190506104646000830184610440565b92915050565b600082825260208201905092915050565b7f43616e6e6f7420736574206f776e657220746f207a65726f0000000000000000600082015250565b60006104b160188361046a565b91506104bc8261047b565b602082019050919050565b600060208201905081810360008301526104e0816104a4565b9050919050565b7f43616e6e6f74207472616e7366657220746f2073656c66000000000000000000600082015250565b600061051d60178361046a565b9150610528826104e7565b602082019050919050565b6000602082019050818103600083015261054c81610510565b9050919050565b6080516126c261056e600039600061085f01526126c26000f3fe6080604052600436106100a05760003560e01c806379ba50971161006457806379ba50971461019257806385572ffb146101a95780638da5cb5b146101d2578063b0f479a1146101fd578063e34ed57514610228578063f2fde38b14610265576100a7565b806301ffc9a7146100ac578063263596a5146100e95780633aeac4e11461011557806347ccca021461013e57806351cff8d914610169576100a7565b366100a757005b600080fd5b3480156100b857600080fd5b506100d360048036038101906100ce91906115bb565b61028e565b6040516100e09190611603565b60405180910390f35b3480156100f557600080fd5b506100fe610360565b60405161010c9291906116c7565b60405180910390f35b34801561012157600080fd5b5061013c60048036038101906101379190611755565b6103fd565b005b34801561014a57600080fd5b506101536104ed565b60405161016091906117f4565b60405180910390f35b34801561017557600080fd5b50610190600480360381019061018b919061180f565b610513565b005b34801561019e57600080fd5b506101a7610611565b005b3480156101b557600080fd5b506101d060048036038101906101cb9190611860565b6107a6565b005b3480156101de57600080fd5b506101e7610832565b6040516101f491906118b8565b60405180910390f35b34801561020957600080fd5b5061021261085b565b60405161021f91906118b8565b60405180910390f35b34801561023457600080fd5b5061024f600480360381019061024a9190611949565b610883565b60405161025c91906119b0565b60405180910390f35b34801561027157600080fd5b5061028c6004803603810190610287919061180f565b610958565b005b60007f85572ffb000000000000000000000000000000000000000000000000000000007bffffffffffffffffffffffffffffffffffffffffffffffffffffffff1916827bffffffffffffffffffffffffffffffffffffffffffffffffffffffff1916148061035957507f01ffc9a7000000000000000000000000000000000000000000000000000000007bffffffffffffffffffffffffffffffffffffffffffffffffffffffff1916827bffffffffffffffffffffffffffffffffffffffffffffffffffffffff1916145b9050919050565b600060606002546003808054610375906119fa565b80601f01602080910402602001604051908101604052809291908181526020018280546103a1906119fa565b80156103ee5780601f106103c3576101008083540402835291602001916103ee565b820191906000526020600020905b8154815290600101906020018083116103d157829003601f168201915b50505050509050915091509091565b61040561096c565b60008173ffffffffffffffffffffffffffffffffffffffff166370a08231306040518263ffffffff1660e01b815260040161044091906118b8565b602060405180830381865afa15801561045d573d6000803e3d6000fd5b505050506040513d601f19601f820116820180604052508101906104819190611a40565b9050600081036104bd576040517fd0d04f6000000000000000000000000000000000000000000000000000000000815260040160405180910390fd5b6104e883828473ffffffffffffffffffffffffffffffffffffffff166109fc9092919063ffffffff16565b505050565b600560009054906101000a900473ffffffffffffffffffffffffffffffffffffffff1681565b61051b61096c565b60004790506000810361055a576040517fd0d04f6000000000000000000000000000000000000000000000000000000000815260040160405180910390fd5b60008273ffffffffffffffffffffffffffffffffffffffff168260405161058090611a9e565b60006040518083038185875af1925050503d80600081146105bd576040519150601f19603f3d011682016040523d82523d6000602084013e6105c2565b606091505b505090508061060c573383836040517f9d11f56300000000000000000000000000000000000000000000000000000000815260040161060393929190611ac2565b60405180910390fd5b505050565b600160009054906101000a900473ffffffffffffffffffffffffffffffffffffffff1673ffffffffffffffffffffffffffffffffffffffff163373ffffffffffffffffffffffffffffffffffffffff16146106a1576040517f08c379a000000000000000000000000000000000000000000000000000000000815260040161069890611b45565b60405180910390fd5b60008060009054906101000a900473ffffffffffffffffffffffffffffffffffffffff169050336000806101000a81548173ffffffffffffffffffffffffffffffffffffffff021916908373ffffffffffffffffffffffffffffffffffffffff1602179055506000600160006101000a81548173ffffffffffffffffffffffffffffffffffffffff021916908373ffffffffffffffffffffffffffffffffffffffff1602179055503373ffffffffffffffffffffffffffffffffffffffff168173ffffffffffffffffffffffffffffffffffffffff167f8be0079c531659141344cd1fd0a4f28419497f9722a3daafe3b4186f6b6457e060405160405180910390a350565b6107ae61085b565b73ffffffffffffffffffffffffffffffffffffffff163373ffffffffffffffffffffffffffffffffffffffff161461081d57336040517fd7f7333400000000000000000000000000000000000000000000000000000000815260040161081491906118b8565b60405180910390fd5b61082f8161082a90611ec8565b610a82565b50565b60008060009054906101000a900473ffffffffffffffffffffffffffffffffffffffff16905090565b60007f0000000000000000000000000000000000000000000000000000000000000000905090565b6000600560009054906101000a900473ffffffffffffffffffffffffffffffffffffffff1673ffffffffffffffffffffffffffffffffffffffff166323b872dd3330886040518463ffffffff1660e01b81526004016108e493929190611ac2565b600060405180830381600087803b1580156108fe57600080fd5b505af1158015610912573d6000803e3d6000fd5b505050506000858560405160200161092b929190611edb565b60405160208183030381529060405290506000610949858584610b80565b90508092505050949350505050565b61096061096c565b61096981610fb8565b50565b60008054906101000a900473ffffffffffffffffffffffffffffffffffffffff1673ffffffffffffffffffffffffffffffffffffffff163373ffffffffffffffffffffffffffffffffffffffff16146109fa576040517f08c379a00000000000000000000000000000000000000000000000000000000081526004016109f190611f50565b60405180910390fd5b565b610a7d8363a9059cbb60e01b8484604051602401610a1b929190611f70565b604051602081830303815290604052907bffffffffffffffffffffffffffffffffffffffffffffffffffffffff19166020820180517bffffffffffffffffffffffffffffffffffffffffffffffffffffffff83818316178352505050506110e4565b505050565b60008160600151806020019051810190610a9c9190611ffe565b9050600081600001519050600082602001519050600560009054906101000a900473ffffffffffffffffffffffffffffffffffffffff1673ffffffffffffffffffffffffffffffffffffffff166323b872dd3083856040518463ffffffff1660e01b8152600401610b0f93929190611ac2565b600060405180830381600087803b158015610b2957600080fd5b505af1158015610b3d573d6000803e3d6000fd5b505050507f0fe7d9801197f79ef3b1595d19379eb58f0fff5f98b0f6d6f34c03cae5306c378282604051610b72929190611edb565b60405180910390a150505050565b600080610bb08484600460009054906101000a900473ffffffffffffffffffffffffffffffffffffffff166111ab565b905060003073ffffffffffffffffffffffffffffffffffffffff1663b0f479a16040518163ffffffff1660e01b8152600401602060405180830381865afa158015610bff573d6000803e3d6000fd5b505050506040513d601f19601f82011682018060405250810190610c23919061202b565b905060008173ffffffffffffffffffffffffffffffffffffffff166320487ded88856040518363ffffffff1660e01b8152600401610c62929190612243565b602060405180830381865afa158015610c7f573d6000803e3d6000fd5b505050506040513d601f19601f82011682018060405250810190610ca39190611a40565b9050600460009054906101000a900473ffffffffffffffffffffffffffffffffffffffff1673ffffffffffffffffffffffffffffffffffffffff166370a08231306040518263ffffffff1660e01b8152600401610d0091906118b8565b602060405180830381865afa158015610d1d573d6000803e3d6000fd5b505050506040513d601f19601f82011682018060405250810190610d419190611a40565b811115610e2257600460009054906101000a900473ffffffffffffffffffffffffffffffffffffffff1673ffffffffffffffffffffffffffffffffffffffff166370a08231306040518263ffffffff1660e01b8152600401610da391906118b8565b602060405180830381865afa158015610dc0573d6000803e3d6000fd5b505050506040513d601f19601f82011682018060405250810190610de49190611a40565b816040517f8f0f4206000000000000000000000000000000000000000000000000000000008152600401610e19929190612273565b60405180910390fd5b600460009054906101000a900473ffffffffffffffffffffffffffffffffffffffff1673ffffffffffffffffffffffffffffffffffffffff1663095ea7b383836040518363ffffffff1660e01b8152600401610e7f929190611f70565b6020604051808303816000875af1158015610e9e573d6000803e3d6000fd5b505050506040513d601f19601f82011682018060405250810190610ec291906122c8565b508173ffffffffffffffffffffffffffffffffffffffff166396f4e9f988856040518363ffffffff1660e01b8152600401610efe929190612243565b6020604051808303816000875af1158015610f1d573d6000803e3d6000fd5b505050506040513d601f19601f82011682018060405250810190610f41919061230a565b93508667ffffffffffffffff16847f3d8a9f055772202d2c3c1fddbad930d3dbe588d8692b75b84cee0719462829118888600460009054906101000a900473ffffffffffffffffffffffffffffffffffffffff1686604051610fa69493929190612381565b60405180910390a35050509392505050565b3373ffffffffffffffffffffffffffffffffffffffff168173ffffffffffffffffffffffffffffffffffffffff1603611026576040517f08c379a000000000000000000000000000000000000000000000000000000000815260040161101d90612419565b60405180910390fd5b80600160006101000a81548173ffffffffffffffffffffffffffffffffffffffff021916908373ffffffffffffffffffffffffffffffffffffffff1602179055508073ffffffffffffffffffffffffffffffffffffffff1660008054906101000a900473ffffffffffffffffffffffffffffffffffffffff1673ffffffffffffffffffffffffffffffffffffffff167fed8889f560326eb138920d842192f0eb3dd22b4f139c87a2c57538e05bae127860405160405180910390a350565b6000611146826040518060400160405280602081526020017f5361666545524332303a206c6f772d6c6576656c2063616c6c206661696c65648152508573ffffffffffffffffffffffffffffffffffffffff1661128e9092919063ffffffff16565b90506000815111156111a6578080602001905181019061116691906122c8565b6111a5576040517f08c379a000000000000000000000000000000000000000000000000000000000815260040161119c906124ab565b60405180910390fd5b5b505050565b6111b36114da565b6040518060a00160405280856040516020016111cf91906118b8565b6040516020818303038152906040528152602001848152602001600067ffffffffffffffff81111561120457611203611b6a565b5b60405190808252806020026020018201604052801561123d57816020015b61122a61151f565b8152602001906001900390816112225790505b5081526020018373ffffffffffffffffffffffffffffffffffffffff168152602001611282604051806040016040528062030d408152602001600115158152506112a6565b81525090509392505050565b606061129d8484600085611325565b90509392505050565b606063181dcf1060e01b826040516024016112c19190612509565b604051602081830303815290604052907bffffffffffffffffffffffffffffffffffffffffffffffffffffffff19166020820180517bffffffffffffffffffffffffffffffffffffffffffffffffffffffff83818316178352505050509050919050565b60608247101561136a576040517f08c379a000000000000000000000000000000000000000000000000000000000815260040161136190612596565b60405180910390fd5b6000808673ffffffffffffffffffffffffffffffffffffffff16858760405161139391906125e7565b60006040518083038185875af1925050503d80600081146113d0576040519150601f19603f3d011682016040523d82523d6000602084013e6113d5565b606091505b50915091506113e6878383876113f2565b92505050949350505050565b6060831561145457600083510361144c5761140c85611467565b61144b576040517f08c379a00000000000000000000000000000000000000000000000000000000081526004016114429061264a565b60405180910390fd5b5b82905061145f565b61145e838361148a565b5b949350505050565b6000808273ffffffffffffffffffffffffffffffffffffffff163b119050919050565b60008251111561149d5781518083602001fd5b806040517f08c379a00000000000000000000000000000000000000000000000000000000081526004016114d1919061266a565b60405180910390fd5b6040518060a00160405280606081526020016060815260200160608152602001600073ffffffffffffffffffffffffffffffffffffffff168152602001606081525090565b6040518060400160405280600073ffffffffffffffffffffffffffffffffffffffff168152602001600081525090565b6000604051905090565b600080fd5b600080fd5b60007fffffffff0000000000000000000000000000000000000000000000000000000082169050919050565b61159881611563565b81146115a357600080fd5b50565b6000813590506115b58161158f565b92915050565b6000602082840312156115d1576115d0611559565b5b60006115df848285016115a6565b91505092915050565b60008115159050919050565b6115fd816115e8565b82525050565b600060208201905061161860008301846115f4565b92915050565b6000819050919050565b6116318161161e565b82525050565b600081519050919050565b600082825260208201905092915050565b60005b83811015611671578082015181840152602081019050611656565b60008484015250505050565b6000601f19601f8301169050919050565b600061169982611637565b6116a38185611642565b93506116b3818560208601611653565b6116bc8161167d565b840191505092915050565b60006040820190506116dc6000830185611628565b81810360208301526116ee818461168e565b90509392505050565b600073ffffffffffffffffffffffffffffffffffffffff82169050919050565b6000611722826116f7565b9050919050565b61173281611717565b811461173d57600080fd5b50565b60008135905061174f81611729565b92915050565b6000806040838503121561176c5761176b611559565b5b600061177a85828601611740565b925050602061178b85828601611740565b9150509250929050565b6000819050919050565b60006117ba6117b56117b0846116f7565b611795565b6116f7565b9050919050565b60006117cc8261179f565b9050919050565b60006117de826117c1565b9050919050565b6117ee816117d3565b82525050565b600060208201905061180960008301846117e5565b92915050565b60006020828403121561182557611824611559565b5b600061183384828501611740565b91505092915050565b600080fd5b600060a082840312156118575761185661183c565b5b81905092915050565b60006020828403121561187657611875611559565b5b600082013567ffffffffffffffff8111156118945761189361155e565b5b6118a084828501611841565b91505092915050565b6118b281611717565b82525050565b60006020820190506118cd60008301846118a9565b92915050565b6000819050919050565b6118e6816118d3565b81146118f157600080fd5b50565b600081359050611903816118dd565b92915050565b600067ffffffffffffffff82169050919050565b61192681611909565b811461193157600080fd5b50565b6000813590506119438161191d565b92915050565b6000806000806080858703121561196357611962611559565b5b6000611971878288016118f4565b945050602061198287828801611740565b935050604061199387828801611934565b92505060606119a487828801611740565b91505092959194509250565b60006020820190506119c56000830184611628565b92915050565b7f4e487b7100000000000000000000000000000000000000000000000000000000600052602260045260246000fd5b60006002820490506001821680611a1257607f821691505b602082108103611a2557611a246119cb565b5b50919050565b600081519050611a3a816118dd565b92915050565b600060208284031215611a5657611a55611559565b5b6000611a6484828501611a2b565b91505092915050565b600081905092915050565b50565b6000611a88600083611a6d565b9150611a9382611a78565b600082019050919050565b6000611aa982611a7b565b9150819050919050565b611abc816118d3565b82525050565b6000606082019050611ad760008301866118a9565b611ae460208301856118a9565b611af16040830184611ab3565b949350505050565b7f4d7573742062652070726f706f736564206f776e657200000000000000000000600082015250565b6000611b2f601683611642565b9150611b3a82611af9565b602082019050919050565b60006020820190508181036000830152611b5e81611b22565b9050919050565b600080fd5b7f4e487b7100000000000000000000000000000000000000000000000000000000600052604160045260246000fd5b611ba28261167d565b810181811067ffffffffffffffff82111715611bc157611bc0611b6a565b5b80604052505050565b6000611bd461154f565b9050611be08282611b99565b919050565b600080fd5b611bf38161161e565b8114611bfe57600080fd5b50565b600081359050611c1081611bea565b92915050565b600080fd5b600080fd5b600067ffffffffffffffff821115611c3b57611c3a611b6a565b5b611c448261167d565b9050602081019050919050565b82818337600083830152505050565b6000611c73611c6e84611c20565b611bca565b905082815260208101848484011115611c8f57611c8e611c1b565b5b611c9a848285611c51565b509392505050565b600082601f830112611cb757611cb6611c16565b5b8135611cc7848260208601611c60565b91505092915050565b600067ffffffffffffffff821115611ceb57611cea611b6a565b5b602082029050602081019050919050565b600080fd5b600060408284031215611d1757611d16611b65565b5b611d216040611bca565b90506000611d3184828501611740565b6000830152506020611d45848285016118f4565b60208301525092915050565b6000611d64611d5f84611cd0565b611bca565b90508083825260208201905060408402830185811115611d8757611d86611cfc565b5b835b81811015611db05780611d9c8882611d01565b845260208401935050604081019050611d89565b5050509392505050565b600082601f830112611dcf57611dce611c16565b5b8135611ddf848260208601611d51565b91505092915050565b600060a08284031215611dfe57611dfd611b65565b5b611e0860a0611bca565b90506000611e1884828501611c01565b6000830152506020611e2c84828501611934565b602083015250604082013567ffffffffffffffff811115611e5057611e4f611be5565b5b611e5c84828501611ca2565b604083015250606082013567ffffffffffffffff811115611e8057611e7f611be5565b5b611e8c84828501611ca2565b606083015250608082013567ffffffffffffffff811115611eb057611eaf611be5565b5b611ebc84828501611dba565b60808301525092915050565b6000611ed43683611de8565b9050919050565b6000604082019050611ef06000830185611ab3565b611efd60208301846118a9565b9392505050565b7f4f6e6c792063616c6c61626c65206279206f776e657200000000000000000000600082015250565b6000611f3a601683611642565b9150611f4582611f04565b602082019050919050565b60006020820190508181036000830152611f6981611f2d565b9050919050565b6000604082019050611f8560008301856118a9565b611f926020830184611ab3565b9392505050565b600081519050611fa881611729565b92915050565b600060408284031215611fc457611fc3611b65565b5b611fce6040611bca565b90506000611fde84828501611a2b565b6000830152506020611ff284828501611f99565b60208301525092915050565b60006040828403121561201457612013611559565b5b600061202284828501611fae565b91505092915050565b60006020828403121561204157612040611559565b5b600061204f84828501611f99565b91505092915050565b61206181611909565b82525050565b600081519050919050565b600082825260208201905092915050565b600061208e82612067565b6120988185612072565b93506120a8818560208601611653565b6120b18161167d565b840191505092915050565b600081519050919050565b600082825260208201905092915050565b6000819050602082019050919050565b6120f181611717565b82525050565b612100816118d3565b82525050565b60408201600082015161211c60008501826120e8565b50602082015161212f60208501826120f7565b50505050565b60006121418383612106565b60408301905092915050565b6000602082019050919050565b6000612165826120bc565b61216f81856120c7565b935061217a836120d8565b8060005b838110156121ab5781516121928882612135565b975061219d8361214d565b92505060018101905061217e565b5085935050505092915050565b600060a08301600083015184820360008601526121d58282612083565b915050602083015184820360208601526121ef8282612083565b91505060408301518482036040860152612209828261215a565b915050606083015161221e60608601826120e8565b50608083015184820360808601526122368282612083565b9150508091505092915050565b60006040820190506122586000830185612058565b818103602083015261226a81846121b8565b90509392505050565b60006040820190506122886000830185611ab3565b6122956020830184611ab3565b9392505050565b6122a5816115e8565b81146122b057600080fd5b50565b6000815190506122c28161229c565b92915050565b6000602082840312156122de576122dd611559565b5b60006122ec848285016122b3565b91505092915050565b60008151905061230481611bea565b92915050565b6000602082840312156123205761231f611559565b5b600061232e848285016122f5565b91505092915050565b600082825260208201905092915050565b600061235382612067565b61235d8185612337565b935061236d818560208601611653565b6123768161167d565b840191505092915050565b600060808201905061239660008301876118a9565b81810360208301526123a88186612348565b90506123b760408301856118a9565b6123c46060830184611ab3565b95945050505050565b7f43616e6e6f74207472616e7366657220746f2073656c66000000000000000000600082015250565b6000612403601783611642565b915061240e826123cd565b602082019050919050565b60006020820190508181036000830152612432816123f6565b9050919050565b7f5361666545524332303a204552433230206f7065726174696f6e20646964206e60008201527f6f74207375636365656400000000000000000000000000000000000000000000602082015250565b6000612495602a83611642565b91506124a082612439565b604082019050919050565b600060208201905081810360008301526124c481612488565b9050919050565b6124d4816115e8565b82525050565b6040820160008201516124f060008501826120f7565b50602082015161250360208501826124cb565b50505050565b600060408201905061251e60008301846124da565b92915050565b7f416464726573733a20696e73756666696369656e742062616c616e636520666f60008201527f722063616c6c0000000000000000000000000000000000000000000000000000602082015250565b6000612580602683611642565b915061258b82612524565b604082019050919050565b600060208201905081810360008301526125af81612573565b9050919050565b60006125c182612067565b6125cb8185611a6d565b93506125db818560208601611653565b80840191505092915050565b60006125f382846125b6565b915081905092915050565b7f416464726573733a2063616c6c20746f206e6f6e2d636f6e7472616374000000600082015250565b6000612634601d83611642565b915061263f826125fe565b602082019050919050565b6000602082019050818103600083015261266381612627565b9050919050565b60006020820190508181036000830152612684818461168e565b90509291505056fea26469706673582212203369925c1f5fa78cba61b759da3753636012188bedd31d35283c2a73e29e74f964736f6c634300081c0033",
  "devdoc": {
    "kind": "dev",
    "methods": {
      "ccipReceive((bytes32,uint64,bytes,bytes,(address,uint256)[]))": {
        "details": "Note ensure you check the msg.sender is the OffRampRouter.",
        "params": {
          "message": "CCIP Message."
        }
      },
      "constructor": {
        "params": {
          "_link": "The address of the link contract.",
          "_router": "The address of the router contract."
        }
      },
      "getLastReceivedMessageDetails()": {
        "returns": {
          "messageId": "The ID of the last received message.",
          "text": "The last received text."
        }
      },
      "getRouter()": {
        "returns": {
          "_0": "CCIP router address"
        }
      },
      "supportsInterface(bytes4)": {
        "details": "Should indicate whether the contract implements IAny2EVMMessageReceiver. e.g. return interfaceId == type(IAny2EVMMessageReceiver).interfaceId || interfaceId == type(IERC165).interfaceId This allows CCIP to check if ccipReceive is available before calling it. - If this returns false or reverts, only tokens are transferred to the receiver. - If this returns true, tokens are transferred and ccipReceive is called atomically. Additionally, if the receiver address does not have code associated with it at the time of execution (EXTCODESIZE returns 0), only tokens will be transferred.",
        "params": {
          "interfaceId": "The interfaceId to check."
        },
        "returns": {
          "_0": "true if the interfaceId is supported."
        }
      },
      "withdraw(address)": {
        "details": "This function reverts if there are no funds to withdraw or if the transfer fails. It should only be callable by the owner of the contract.",
        "params": {
          "_beneficiary": "The address to which the Ether should be sent."
        }
      },
      "withdrawToken(address,address)": {
        "details": "This function reverts with a 'NothingToWithdraw' error if there are no tokens to withdraw.",
        "params": {
          "_beneficiary": "The address to which the tokens will be sent.",
          "_token": "The contract address of the ERC20 token to be withdrawn."
        }
      }
    },
    "title": "- A simple messenger contract for sending/receiving string data across chains.",
    "version": 1
  },
  "userdoc": {
    "kind": "user",
    "methods": {
      "acceptOwnership()": {
        "notice": "Allows an ownership transfer to be completed by the recipient."
      },
      "ccipReceive((bytes32,uint64,bytes,bytes,(address,uint256)[]))": {
        "notice": "Called by the Router to deliver a message. If this reverts, any token transfers also revert. The message will move to a FAILED state and become available for manual execution."
      },
      "constructor": {
        "notice": "Constructor initializes the contract with the router address."
      },
      "getLastReceivedMessageDetails()": {
        "notice": "Fetches the details of the last received message."
      },
      "getRouter()": {
        "notice": "Return the current router"
      },
      "owner()": {
        "notice": "Get the current owner"
      },
      "supportsInterface(bytes4)": {
        "notice": "IERC165 supports an interfaceId."
      },
      "transferOwnership(address)": {
        "notice": "Allows an owner to begin transferring ownership to a new address."
      },
      "withdraw(address)": {
        "notice": "Allows the contract owner to withdraw the entire balance of Ether from the contract."
      },
      "withdrawToken(address,address)": {
        "notice": "Allows the owner of the contract to withdraw all tokens of a specific ERC20 token."
      }
    },
    "version": 1
  },
  "storageLayout": {
    "storage": [
      {
        "astId": 1695,
        "contract": "contracts/NFTPoolLockAndRelease.sol:NFTPoolLockAndRelease",
        "label": "s_owner",
        "offset": 0,
        "slot": "0",
        "type": "t_address"
      },
      {
        "astId": 1697,
        "contract": "contracts/NFTPoolLockAndRelease.sol:NFTPoolLockAndRelease",
        "label": "s_pendingOwner",
        "offset": 0,
        "slot": "1",
        "type": "t_address"
      },
      {
        "astId": 13761,
        "contract": "contracts/NFTPoolLockAndRelease.sol:NFTPoolLockAndRelease",
        "label": "s_lastReceivedMessageId",
        "offset": 0,
        "slot": "2",
        "type": "t_bytes32"
      },
      {
        "astId": 13763,
        "contract": "contracts/NFTPoolLockAndRelease.sol:NFTPoolLockAndRelease",
        "label": "s_lastReceivedText",
        "offset": 0,
        "slot": "3",
        "type": "t_string_storage"
      },
      {
        "astId": 13766,
        "contract": "contracts/NFTPoolLockAndRelease.sol:NFTPoolLockAndRelease",
        "label": "s_linkToken",
        "offset": 0,
        "slot": "4",
        "type": "t_contract(IERC20)3299"
      },
      {
        "astId": 13769,
        "contract": "contracts/NFTPoolLockAndRelease.sol:NFTPoolLockAndRelease",
        "label": "nft",
        "offset": 0,
        "slot": "5",
        "type": "t_contract(MyToken)13248"
      }
    ],
    "types": {
      "t_address": {
        "encoding": "inplace",
        "label": "address",
        "numberOfBytes": "20"
      },
      "t_bytes32": {
        "encoding": "inplace",
        "label": "bytes32",
        "numberOfBytes": "32"
      },
      "t_contract(IERC20)3299": {
        "encoding": "inplace",
        "label": "contract IERC20",
        "numberOfBytes": "20"
      },
      "t_contract(MyToken)13248": {
        "encoding": "inplace",
        "label": "contract MyToken",
        "numberOfBytes": "20"
      },
      "t_string_storage": {
        "encoding": "bytes",
        "label": "string",
        "numberOfBytes": "32"
      }
    }
  }
}