{
  "address": "0xb0adAd67fb76c62e2101A10A182e4803a3477c17",
  "abi": [
    {
      "inputs": [
        {
          "internalType": "address",
          "name": "_router",
          "type": "address"
        },
        {
          "internalType": "address",
          "name": "_link",
          "type": "address"
        },
        {
          "internalType": "address",
          "name": "wnftAddr",
          "type": "address"
        }
      ],
      "stateMutability": "nonpayable",
      "type": "constructor"
    },
    {
      "inputs": [
        {
          "internalType": "address",
          "name": "owner",
          "type": "address"
        },
        {
          "internalType": "address",
          "name": "target",
          "type": "address"
        },
        {
          "internalType": "uint256",
          "name": "value",
          "type": "uint256"
        }
      ],
      "name": "FailedToWithdrawEth",
      "type": "error"
    },
    {
      "inputs": [],
      "name": "InvalidReceiverAddress",
      "type": "error"
    },
    {
      "inputs": [
        {
          "internalType": "address",
          "name": "router",
          "type": "address"
        }
      ],
      "name": "InvalidRouter",
      "type": "error"
    },
    {
      "inputs": [
        {
          "internalType": "uint256",
          "name": "currentBalance",
          "type": "uint256"
        },
        {
          "internalType": "uint256",
          "name": "calculatedFees",
          "type": "uint256"
        }
      ],
      "name": "NotEnoughBalance",
      "type": "error"
    },
    {
      "inputs": [],
      "name": "NothingToWithdraw",
      "type": "error"
    },
    {
      "anonymous": false,
      "inputs": [
        {
          "indexed": true,
          "internalType": "bytes32",
          "name": "messageId",
          "type": "bytes32"
        },
        {
          "indexed": true,
          "internalType": "uint64",
          "name": "destinationChainSelector",
          "type": "uint64"
        },
        {
          "indexed": false,
          "internalType": "address",
          "name": "receiver",
          "type": "address"
        },
        {
          "indexed": false,
          "internalType": "bytes",
          "name": "text",
          "type": "bytes"
        },
        {
          "indexed": false,
          "internalType": "address",
          "name": "feeToken",
          "type": "address"
        },
        {
          "indexed": false,
          "internalType": "uint256",
          "name": "fees",
          "type": "uint256"
        }
      ],
      "name": "MessageSent",
      "type": "event"
    },
    {
      "anonymous": false,
      "inputs": [
        {
          "indexed": true,
          "internalType": "address",
          "name": "from",
          "type": "address"
        },
        {
          "indexed": true,
          "internalType": "address",
          "name": "to",
          "type": "address"
        }
      ],
      "name": "OwnershipTransferRequested",
      "type": "event"
    },
    {
      "anonymous": false,
      "inputs": [
        {
          "indexed": true,
          "internalType": "address",
          "name": "from",
          "type": "address"
        },
        {
          "indexed": true,
          "internalType": "address",
          "name": "to",
          "type": "address"
        }
      ],
      "name": "OwnershipTransferred",
      "type": "event"
    },
    {
      "anonymous": false,
      "inputs": [
        {
          "indexed": false,
          "internalType": "uint256",
          "name": "tokenId",
          "type": "uint256"
        },
        {
          "indexed": false,
          "internalType": "address",
          "name": "newOwner",
          "type": "address"
        }
      ],
      "name": "TokenMinted",
      "type": "event"
    },
    {
      "inputs": [],
      "name": "acceptOwnership",
      "outputs": [],
      "stateMutability": "nonpayable",
      "type": "function"
    },
    {
      "inputs": [
        {
          "internalType": "uint256",
          "name": "tokenId",
          "type": "uint256"
        },
        {
          "internalType": "address",
          "name": "newOwner",
          "type": "address"
        },
        {
          "internalType": "uint64",
          "name": "chainSelector",
          "type": "uint64"
        },
        {
          "internalType": "address",
          "name": "recevier",
          "type": "address"
        }
      ],
      "name": "burnAndSendNFT",
      "outputs": [
        {
          "internalType": "bytes32",
          "name": "",
          "type": "bytes32"
        }
      ],
      "stateMutability": "nonpayable",
      "type": "function"
    },
    {
      "inputs": [
        {
          "components": [
            {
              "internalType": "bytes32",
              "name": "messageId",
              "type": "bytes32"
            },
            {
              "internalType": "uint64",
              "name": "sourceChainSelector",
              "type": "uint64"
            },
            {
              "internalType": "bytes",
              "name": "sender",
              "type": "bytes"
            },
            {
              "internalType": "bytes",
              "name": "data",
              "type": "bytes"
            },
            {
              "components": [
                {
                  "internalType": "address",
                  "name": "token",
                  "type": "address"
                },
                {
                  "internalType": "uint256",
                  "name": "amount",
                  "type": "uint256"
                }
              ],
              "internalType": "struct Client.EVMTokenAmount[]",
              "name": "destTokenAmounts",
              "type": "tuple[]"
            }
          ],
          "internalType": "struct Client.Any2EVMMessage",
          "name": "message",
          "type": "tuple"
        }
      ],
      "name": "ccipReceive",
      "outputs": [],
      "stateMutability": "nonpayable",
      "type": "function"
    },
    {
      "inputs": [],
      "name": "getLastReceivedMessageDetails",
      "outputs": [
        {
          "internalType": "bytes32",
          "name": "messageId",
          "type": "bytes32"
        },
        {
          "internalType": "string",
          "name": "text",
          "type": "string"
        }
      ],
      "stateMutability": "view",
      "type": "function"
    },
    {
      "inputs": [],
      "name": "getRouter",
      "outputs": [
        {
          "internalType": "address",
          "name": "",
          "type": "address"
        }
      ],
      "stateMutability": "view",
      "type": "function"
    },
    {
      "inputs": [],
      "name": "owner",
      "outputs": [
        {
          "internalType": "address",
          "name": "",
          "type": "address"
        }
      ],
      "stateMutability": "view",
      "type": "function"
    },
    {
      "inputs": [
        {
          "internalType": "bytes4",
          "name": "interfaceId",
          "type": "bytes4"
        }
      ],
      "name": "supportsInterface",
      "outputs": [
        {
          "internalType": "bool",
          "name": "",
          "type": "bool"
        }
      ],
      "stateMutability": "pure",
      "type": "function"
    },
    {
      "inputs": [
        {
          "internalType": "address",
          "name": "to",
          "type": "address"
        }
      ],
      "name": "transferOwnership",
      "outputs": [],
      "stateMutability": "nonpayable",
      "type": "function"
    },
    {
      "inputs": [
        {
          "internalType": "address",
          "name": "_beneficiary",
          "type": "address"
        }
      ],
      "name": "withdraw",
      "outputs": [],
      "stateMutability": "nonpayable",
      "type": "function"
    },
    {
      "inputs": [
        {
          "internalType": "address",
          "name": "_beneficiary",
          "type": "address"
        },
        {
          "internalType": "address",
          "name": "_token",
          "type": "address"
        }
      ],
      "name": "withdrawToken",
      "outputs": [],
      "stateMutability": "nonpayable",
      "type": "function"
    },
    {
      "inputs": [],
      "name": "wnft",
      "outputs": [
        {
          "internalType": "contract WrappedMyToken",
          "name": "",
          "type": "address"
        }
      ],
      "stateMutability": "view",
      "type": "function"
    },
    {
      "stateMutability": "payable",
      "type": "receive"
    }
  ],
  "transactionHash": "0x9685ca96afd700f52c29d210234f66eea8fed203c190c2b7077fc9b02cf6d036",
  "args": [
    "0x9C32fCB86BF0f4a1A8921a9Fe46de3198bb884B2",
    "0x0Fd9e8d3aF1aaee056EB9e802c3A762a667b1904",
    "0x8C2Cf7c763D90DE940e968b5B329A9072e2f1D57"
  ],
  "numDeployments": 1,
  "solcInputHash": "bd8087828be326b23929253ad9e56eb2",
  "bytecode": "0x60a060405234801561001057600080fd5b50604051612cd6380380612cd6833981810160405281019061003291906103ed565b3380600085600073ffffffffffffffffffffffffffffffffffffffff168173ffffffffffffffffffffffffffffffffffffffff16036100a95760006040517fd7f733340000000000000000000000000000000000000000000000000000000081526004016100a0919061044f565b60405180910390fd5b8073ffffffffffffffffffffffffffffffffffffffff1660808173ffffffffffffffffffffffffffffffffffffffff168152505050600073ffffffffffffffffffffffffffffffffffffffff168273ffffffffffffffffffffffffffffffffffffffff160361014d576040517f08c379a0000000000000000000000000000000000000000000000000000000008152600401610144906104c7565b60405180910390fd5b816000806101000a81548173ffffffffffffffffffffffffffffffffffffffff021916908373ffffffffffffffffffffffffffffffffffffffff160217905550600073ffffffffffffffffffffffffffffffffffffffff168173ffffffffffffffffffffffffffffffffffffffff16146101d1576101d08161025e60201b60201c565b5b50505081600460006101000a81548173ffffffffffffffffffffffffffffffffffffffff021916908373ffffffffffffffffffffffffffffffffffffffff16021790555080600560006101000a81548173ffffffffffffffffffffffffffffffffffffffff021916908373ffffffffffffffffffffffffffffffffffffffff160217905550505050610553565b3373ffffffffffffffffffffffffffffffffffffffff168173ffffffffffffffffffffffffffffffffffffffff16036102cc576040517f08c379a00000000000000000000000000000000000000000000000000000000081526004016102c390610533565b60405180910390fd5b80600160006101000a81548173ffffffffffffffffffffffffffffffffffffffff021916908373ffffffffffffffffffffffffffffffffffffffff1602179055508073ffffffffffffffffffffffffffffffffffffffff1660008054906101000a900473ffffffffffffffffffffffffffffffffffffffff1673ffffffffffffffffffffffffffffffffffffffff167fed8889f560326eb138920d842192f0eb3dd22b4f139c87a2c57538e05bae127860405160405180910390a350565b600080fd5b600073ffffffffffffffffffffffffffffffffffffffff82169050919050565b60006103ba8261038f565b9050919050565b6103ca816103af565b81146103d557600080fd5b50565b6000815190506103e7816103c1565b92915050565b6000806000606084860312156104065761040561038a565b5b6000610414868287016103d8565b9350506020610425868287016103d8565b9250506040610436868287016103d8565b9150509250925092565b610449816103af565b82525050565b60006020820190506104646000830184610440565b92915050565b600082825260208201905092915050565b7f43616e6e6f7420736574206f776e657220746f207a65726f0000000000000000600082015250565b60006104b160188361046a565b91506104bc8261047b565b602082019050919050565b600060208201905081810360008301526104e0816104a4565b9050919050565b7f43616e6e6f74207472616e7366657220746f2073656c66000000000000000000600082015250565b600061051d60178361046a565b9150610528826104e7565b602082019050919050565b6000602082019050818103600083015261054c81610510565b9050919050565b60805161276861056e600039600061085f01526127686000f3fe6080604052600436106100a05760003560e01c806385572ffb1161006457806385572ffb1461017e5780638da5cb5b146101a75780639c046b1b146101d2578063b0f479a1146101fd578063b1bafd3814610228578063f2fde38b14610265576100a7565b806301ffc9a7146100ac578063263596a5146100e95780633aeac4e11461011557806351cff8d91461013e57806379ba509714610167576100a7565b366100a757005b600080fd5b3480156100b857600080fd5b506100d360048036038101906100ce9190611646565b61028e565b6040516100e0919061168e565b60405180910390f35b3480156100f557600080fd5b506100fe610360565b60405161010c929190611752565b60405180910390f35b34801561012157600080fd5b5061013c600480360381019061013791906117e0565b6103fd565b005b34801561014a57600080fd5b5061016560048036038101906101609190611820565b6104ed565b005b34801561017357600080fd5b5061017c6105eb565b005b34801561018a57600080fd5b506101a560048036038101906101a09190611871565b610780565b005b3480156101b357600080fd5b506101bc61080c565b6040516101c991906118c9565b60405180910390f35b3480156101de57600080fd5b506101e7610835565b6040516101f49190611943565b60405180910390f35b34801561020957600080fd5b5061021261085b565b60405161021f91906118c9565b60405180910390f35b34801561023457600080fd5b5061024f600480360381019061024a91906119d4565b610883565b60405161025c9190611a3b565b60405180910390f35b34801561027157600080fd5b5061028c60048036038101906102879190611820565b6109e5565b005b60007f85572ffb000000000000000000000000000000000000000000000000000000007bffffffffffffffffffffffffffffffffffffffffffffffffffffffff1916827bffffffffffffffffffffffffffffffffffffffffffffffffffffffff1916148061035957507f01ffc9a7000000000000000000000000000000000000000000000000000000007bffffffffffffffffffffffffffffffffffffffffffffffffffffffff1916827bffffffffffffffffffffffffffffffffffffffffffffffffffffffff1916145b9050919050565b60006060600254600380805461037590611a85565b80601f01602080910402602001604051908101604052809291908181526020018280546103a190611a85565b80156103ee5780601f106103c3576101008083540402835291602001916103ee565b820191906000526020600020905b8154815290600101906020018083116103d157829003601f168201915b50505050509050915091509091565b6104056109f9565b60008173ffffffffffffffffffffffffffffffffffffffff166370a08231306040518263ffffffff1660e01b815260040161044091906118c9565b602060405180830381865afa15801561045d573d6000803e3d6000fd5b505050506040513d601f19601f820116820180604052508101906104819190611acb565b9050600081036104bd576040517fd0d04f6000000000000000000000000000000000000000000000000000000000815260040160405180910390fd5b6104e883828473ffffffffffffffffffffffffffffffffffffffff16610a899092919063ffffffff16565b505050565b6104f56109f9565b600047905060008103610534576040517fd0d04f6000000000000000000000000000000000000000000000000000000000815260040160405180910390fd5b60008273ffffffffffffffffffffffffffffffffffffffff168260405161055a90611b29565b60006040518083038185875af1925050503d8060008114610597576040519150601f19603f3d011682016040523d82523d6000602084013e61059c565b606091505b50509050806105e6573383836040517f9d11f5630000000000000000000000000000000000000000000000000000000081526004016105dd93929190611b4d565b60405180910390fd5b505050565b600160009054906101000a900473ffffffffffffffffffffffffffffffffffffffff1673ffffffffffffffffffffffffffffffffffffffff163373ffffffffffffffffffffffffffffffffffffffff161461067b576040517f08c379a000000000000000000000000000000000000000000000000000000000815260040161067290611bd0565b60405180910390fd5b60008060009054906101000a900473ffffffffffffffffffffffffffffffffffffffff169050336000806101000a81548173ffffffffffffffffffffffffffffffffffffffff021916908373ffffffffffffffffffffffffffffffffffffffff1602179055506000600160006101000a81548173ffffffffffffffffffffffffffffffffffffffff021916908373ffffffffffffffffffffffffffffffffffffffff1602179055503373ffffffffffffffffffffffffffffffffffffffff168173ffffffffffffffffffffffffffffffffffffffff167f8be0079c531659141344cd1fd0a4f28419497f9722a3daafe3b4186f6b6457e060405160405180910390a350565b61078861085b565b73ffffffffffffffffffffffffffffffffffffffff163373ffffffffffffffffffffffffffffffffffffffff16146107f757336040517fd7f733340000000000000000000000000000000000000000000000000000000081526004016107ee91906118c9565b60405180910390fd5b6108098161080490611f53565b610b0f565b50565b60008060009054906101000a900473ffffffffffffffffffffffffffffffffffffffff16905090565b600560009054906101000a900473ffffffffffffffffffffffffffffffffffffffff1681565b60007f0000000000000000000000000000000000000000000000000000000000000000905090565b6000600560009054906101000a900473ffffffffffffffffffffffffffffffffffffffff1673ffffffffffffffffffffffffffffffffffffffff166323b872dd3330886040518463ffffffff1660e01b81526004016108e493929190611b4d565b600060405180830381600087803b1580156108fe57600080fd5b505af1158015610912573d6000803e3d6000fd5b50505050600560009054906101000a900473ffffffffffffffffffffffffffffffffffffffff1673ffffffffffffffffffffffffffffffffffffffff166342966c68866040518263ffffffff1660e01b81526004016109719190611f66565b600060405180830381600087803b15801561098b57600080fd5b505af115801561099f573d6000803e3d6000fd5b50505050600085856040516020016109b8929190611f81565b604051602081830303815290604052905060006109d6858584610c0b565b90508092505050949350505050565b6109ed6109f9565b6109f681611043565b50565b60008054906101000a900473ffffffffffffffffffffffffffffffffffffffff1673ffffffffffffffffffffffffffffffffffffffff163373ffffffffffffffffffffffffffffffffffffffff1614610a87576040517f08c379a0000000000000000000000000000000000000000000000000000000008152600401610a7e90611ff6565b60405180910390fd5b565b610b0a8363a9059cbb60e01b8484604051602401610aa8929190612016565b604051602081830303815290604052907bffffffffffffffffffffffffffffffffffffffffffffffffffffffff19166020820180517bffffffffffffffffffffffffffffffffffffffffffffffffffffffff838183161783525050505061116f565b505050565b60008160600151806020019051810190610b2991906120a4565b9050600081600001519050600082602001519050600560009054906101000a900473ffffffffffffffffffffffffffffffffffffffff1673ffffffffffffffffffffffffffffffffffffffff16638a7fea8282846040518363ffffffff1660e01b8152600401610b9a929190612016565b600060405180830381600087803b158015610bb457600080fd5b505af1158015610bc8573d6000803e3d6000fd5b505050507f3a5398bda6f1f57d6c96834fa9bf02b5517bdc847d14312015a917ba421c31c98282604051610bfd929190611f81565b60405180910390a150505050565b600080610c3b8484600460009054906101000a900473ffffffffffffffffffffffffffffffffffffffff16611236565b905060003073ffffffffffffffffffffffffffffffffffffffff1663b0f479a16040518163ffffffff1660e01b8152600401602060405180830381865afa158015610c8a573d6000803e3d6000fd5b505050506040513d601f19601f82011682018060405250810190610cae91906120d1565b905060008173ffffffffffffffffffffffffffffffffffffffff166320487ded88856040518363ffffffff1660e01b8152600401610ced9291906122e9565b602060405180830381865afa158015610d0a573d6000803e3d6000fd5b505050506040513d601f19601f82011682018060405250810190610d2e9190611acb565b9050600460009054906101000a900473ffffffffffffffffffffffffffffffffffffffff1673ffffffffffffffffffffffffffffffffffffffff166370a08231306040518263ffffffff1660e01b8152600401610d8b91906118c9565b602060405180830381865afa158015610da8573d6000803e3d6000fd5b505050506040513d601f19601f82011682018060405250810190610dcc9190611acb565b811115610ead57600460009054906101000a900473ffffffffffffffffffffffffffffffffffffffff1673ffffffffffffffffffffffffffffffffffffffff166370a08231306040518263ffffffff1660e01b8152600401610e2e91906118c9565b602060405180830381865afa158015610e4b573d6000803e3d6000fd5b505050506040513d601f19601f82011682018060405250810190610e6f9190611acb565b816040517f8f0f4206000000000000000000000000000000000000000000000000000000008152600401610ea4929190612319565b60405180910390fd5b600460009054906101000a900473ffffffffffffffffffffffffffffffffffffffff1673ffffffffffffffffffffffffffffffffffffffff1663095ea7b383836040518363ffffffff1660e01b8152600401610f0a929190612016565b6020604051808303816000875af1158015610f29573d6000803e3d6000fd5b505050506040513d601f19601f82011682018060405250810190610f4d919061236e565b508173ffffffffffffffffffffffffffffffffffffffff166396f4e9f988856040518363ffffffff1660e01b8152600401610f899291906122e9565b6020604051808303816000875af1158015610fa8573d6000803e3d6000fd5b505050506040513d601f19601f82011682018060405250810190610fcc91906123b0565b93508667ffffffffffffffff16847f3d8a9f055772202d2c3c1fddbad930d3dbe588d8692b75b84cee0719462829118888600460009054906101000a900473ffffffffffffffffffffffffffffffffffffffff16866040516110319493929190612427565b60405180910390a35050509392505050565b3373ffffffffffffffffffffffffffffffffffffffff168173ffffffffffffffffffffffffffffffffffffffff16036110b1576040517f08c379a00000000000000000000000000000000000000000000000000000000081526004016110a8906124bf565b60405180910390fd5b80600160006101000a81548173ffffffffffffffffffffffffffffffffffffffff021916908373ffffffffffffffffffffffffffffffffffffffff1602179055508073ffffffffffffffffffffffffffffffffffffffff1660008054906101000a900473ffffffffffffffffffffffffffffffffffffffff1673ffffffffffffffffffffffffffffffffffffffff167fed8889f560326eb138920d842192f0eb3dd22b4f139c87a2c57538e05bae127860405160405180910390a350565b60006111d1826040518060400160405280602081526020017f5361666545524332303a206c6f772d6c6576656c2063616c6c206661696c65648152508573ffffffffffffffffffffffffffffffffffffffff166113199092919063ffffffff16565b905060008151111561123157808060200190518101906111f1919061236e565b611230576040517f08c379a000000000000000000000000000000000000000000000000000000000815260040161122790612551565b60405180910390fd5b5b505050565b61123e611565565b6040518060a001604052808560405160200161125a91906118c9565b6040516020818303038152906040528152602001848152602001600067ffffffffffffffff81111561128f5761128e611bf5565b5b6040519080825280602002602001820160405280156112c857816020015b6112b56115aa565b8152602001906001900390816112ad5790505b5081526020018373ffffffffffffffffffffffffffffffffffffffff16815260200161130d604051806040016040528062030d40815260200160011515815250611331565b81525090509392505050565b606061132884846000856113b0565b90509392505050565b606063181dcf1060e01b8260405160240161134c91906125af565b604051602081830303815290604052907bffffffffffffffffffffffffffffffffffffffffffffffffffffffff19166020820180517bffffffffffffffffffffffffffffffffffffffffffffffffffffffff83818316178352505050509050919050565b6060824710156113f5576040517f08c379a00000000000000000000000000000000000000000000000000000000081526004016113ec9061263c565b60405180910390fd5b6000808673ffffffffffffffffffffffffffffffffffffffff16858760405161141e919061268d565b60006040518083038185875af1925050503d806000811461145b576040519150601f19603f3d011682016040523d82523d6000602084013e611460565b606091505b50915091506114718783838761147d565b92505050949350505050565b606083156114df5760008351036114d757611497856114f2565b6114d6576040517f08c379a00000000000000000000000000000000000000000000000000000000081526004016114cd906126f0565b60405180910390fd5b5b8290506114ea565b6114e98383611515565b5b949350505050565b6000808273ffffffffffffffffffffffffffffffffffffffff163b119050919050565b6000825111156115285781518083602001fd5b806040517f08c379a000000000000000000000000000000000000000000000000000000000815260040161155c9190612710565b60405180910390fd5b6040518060a00160405280606081526020016060815260200160608152602001600073ffffffffffffffffffffffffffffffffffffffff168152602001606081525090565b6040518060400160405280600073ffffffffffffffffffffffffffffffffffffffff168152602001600081525090565b6000604051905090565b600080fd5b600080fd5b60007fffffffff0000000000000000000000000000000000000000000000000000000082169050919050565b611623816115ee565b811461162e57600080fd5b50565b6000813590506116408161161a565b92915050565b60006020828403121561165c5761165b6115e4565b5b600061166a84828501611631565b91505092915050565b60008115159050919050565b61168881611673565b82525050565b60006020820190506116a3600083018461167f565b92915050565b6000819050919050565b6116bc816116a9565b82525050565b600081519050919050565b600082825260208201905092915050565b60005b838110156116fc5780820151818401526020810190506116e1565b60008484015250505050565b6000601f19601f8301169050919050565b6000611724826116c2565b61172e81856116cd565b935061173e8185602086016116de565b61174781611708565b840191505092915050565b600060408201905061176760008301856116b3565b81810360208301526117798184611719565b90509392505050565b600073ffffffffffffffffffffffffffffffffffffffff82169050919050565b60006117ad82611782565b9050919050565b6117bd816117a2565b81146117c857600080fd5b50565b6000813590506117da816117b4565b92915050565b600080604083850312156117f7576117f66115e4565b5b6000611805858286016117cb565b9250506020611816858286016117cb565b9150509250929050565b600060208284031215611836576118356115e4565b5b6000611844848285016117cb565b91505092915050565b600080fd5b600060a082840312156118685761186761184d565b5b81905092915050565b600060208284031215611887576118866115e4565b5b600082013567ffffffffffffffff8111156118a5576118a46115e9565b5b6118b184828501611852565b91505092915050565b6118c3816117a2565b82525050565b60006020820190506118de60008301846118ba565b92915050565b6000819050919050565b60006119096119046118ff84611782565b6118e4565b611782565b9050919050565b600061191b826118ee565b9050919050565b600061192d82611910565b9050919050565b61193d81611922565b82525050565b60006020820190506119586000830184611934565b92915050565b6000819050919050565b6119718161195e565b811461197c57600080fd5b50565b60008135905061198e81611968565b92915050565b600067ffffffffffffffff82169050919050565b6119b181611994565b81146119bc57600080fd5b50565b6000813590506119ce816119a8565b92915050565b600080600080608085870312156119ee576119ed6115e4565b5b60006119fc8782880161197f565b9450506020611a0d878288016117cb565b9350506040611a1e878288016119bf565b9250506060611a2f878288016117cb565b91505092959194509250565b6000602082019050611a5060008301846116b3565b92915050565b7f4e487b7100000000000000000000000000000000000000000000000000000000600052602260045260246000fd5b60006002820490506001821680611a9d57607f821691505b602082108103611ab057611aaf611a56565b5b50919050565b600081519050611ac581611968565b92915050565b600060208284031215611ae157611ae06115e4565b5b6000611aef84828501611ab6565b91505092915050565b600081905092915050565b50565b6000611b13600083611af8565b9150611b1e82611b03565b600082019050919050565b6000611b3482611b06565b9150819050919050565b611b478161195e565b82525050565b6000606082019050611b6260008301866118ba565b611b6f60208301856118ba565b611b7c6040830184611b3e565b949350505050565b7f4d7573742062652070726f706f736564206f776e657200000000000000000000600082015250565b6000611bba6016836116cd565b9150611bc582611b84565b602082019050919050565b60006020820190508181036000830152611be981611bad565b9050919050565b600080fd5b7f4e487b7100000000000000000000000000000000000000000000000000000000600052604160045260246000fd5b611c2d82611708565b810181811067ffffffffffffffff82111715611c4c57611c4b611bf5565b5b80604052505050565b6000611c5f6115da565b9050611c6b8282611c24565b919050565b600080fd5b611c7e816116a9565b8114611c8957600080fd5b50565b600081359050611c9b81611c75565b92915050565b600080fd5b600080fd5b600067ffffffffffffffff821115611cc657611cc5611bf5565b5b611ccf82611708565b9050602081019050919050565b82818337600083830152505050565b6000611cfe611cf984611cab565b611c55565b905082815260208101848484011115611d1a57611d19611ca6565b5b611d25848285611cdc565b509392505050565b600082601f830112611d4257611d41611ca1565b5b8135611d52848260208601611ceb565b91505092915050565b600067ffffffffffffffff821115611d7657611d75611bf5565b5b602082029050602081019050919050565b600080fd5b600060408284031215611da257611da1611bf0565b5b611dac6040611c55565b90506000611dbc848285016117cb565b6000830152506020611dd08482850161197f565b60208301525092915050565b6000611def611dea84611d5b565b611c55565b90508083825260208201905060408402830185811115611e1257611e11611d87565b5b835b81811015611e3b5780611e278882611d8c565b845260208401935050604081019050611e14565b5050509392505050565b600082601f830112611e5a57611e59611ca1565b5b8135611e6a848260208601611ddc565b91505092915050565b600060a08284031215611e8957611e88611bf0565b5b611e9360a0611c55565b90506000611ea384828501611c8c565b6000830152506020611eb7848285016119bf565b602083015250604082013567ffffffffffffffff811115611edb57611eda611c70565b5b611ee784828501611d2d565b604083015250606082013567ffffffffffffffff811115611f0b57611f0a611c70565b5b611f1784828501611d2d565b606083015250608082013567ffffffffffffffff811115611f3b57611f3a611c70565b5b611f4784828501611e45565b60808301525092915050565b6000611f5f3683611e73565b9050919050565b6000602082019050611f7b6000830184611b3e565b92915050565b6000604082019050611f966000830185611b3e565b611fa360208301846118ba565b9392505050565b7f4f6e6c792063616c6c61626c65206279206f776e657200000000000000000000600082015250565b6000611fe06016836116cd565b9150611feb82611faa565b602082019050919050565b6000602082019050818103600083015261200f81611fd3565b9050919050565b600060408201905061202b60008301856118ba565b6120386020830184611b3e565b9392505050565b60008151905061204e816117b4565b92915050565b60006040828403121561206a57612069611bf0565b5b6120746040611c55565b9050600061208484828501611ab6565b60008301525060206120988482850161203f565b60208301525092915050565b6000604082840312156120ba576120b96115e4565b5b60006120c884828501612054565b91505092915050565b6000602082840312156120e7576120e66115e4565b5b60006120f58482850161203f565b91505092915050565b61210781611994565b82525050565b600081519050919050565b600082825260208201905092915050565b60006121348261210d565b61213e8185612118565b935061214e8185602086016116de565b61215781611708565b840191505092915050565b600081519050919050565b600082825260208201905092915050565b6000819050602082019050919050565b612197816117a2565b82525050565b6121a68161195e565b82525050565b6040820160008201516121c2600085018261218e565b5060208201516121d5602085018261219d565b50505050565b60006121e783836121ac565b60408301905092915050565b6000602082019050919050565b600061220b82612162565b612215818561216d565b93506122208361217e565b8060005b8381101561225157815161223888826121db565b9750612243836121f3565b925050600181019050612224565b5085935050505092915050565b600060a083016000830151848203600086015261227b8282612129565b915050602083015184820360208601526122958282612129565b915050604083015184820360408601526122af8282612200565b91505060608301516122c4606086018261218e565b50608083015184820360808601526122dc8282612129565b9150508091505092915050565b60006040820190506122fe60008301856120fe565b8181036020830152612310818461225e565b90509392505050565b600060408201905061232e6000830185611b3e565b61233b6020830184611b3e565b9392505050565b61234b81611673565b811461235657600080fd5b50565b60008151905061236881612342565b92915050565b600060208284031215612384576123836115e4565b5b600061239284828501612359565b91505092915050565b6000815190506123aa81611c75565b92915050565b6000602082840312156123c6576123c56115e4565b5b60006123d48482850161239b565b91505092915050565b600082825260208201905092915050565b60006123f98261210d565b61240381856123dd565b93506124138185602086016116de565b61241c81611708565b840191505092915050565b600060808201905061243c60008301876118ba565b818103602083015261244e81866123ee565b905061245d60408301856118ba565b61246a6060830184611b3e565b95945050505050565b7f43616e6e6f74207472616e7366657220746f2073656c66000000000000000000600082015250565b60006124a96017836116cd565b91506124b482612473565b602082019050919050565b600060208201905081810360008301526124d88161249c565b9050919050565b7f5361666545524332303a204552433230206f7065726174696f6e20646964206e60008201527f6f74207375636365656400000000000000000000000000000000000000000000602082015250565b600061253b602a836116cd565b9150612546826124df565b604082019050919050565b6000602082019050818103600083015261256a8161252e565b9050919050565b61257a81611673565b82525050565b604082016000820151612596600085018261219d565b5060208201516125a96020850182612571565b50505050565b60006040820190506125c46000830184612580565b92915050565b7f416464726573733a20696e73756666696369656e742062616c616e636520666f60008201527f722063616c6c0000000000000000000000000000000000000000000000000000602082015250565b60006126266026836116cd565b9150612631826125ca565b604082019050919050565b6000602082019050818103600083015261265581612619565b9050919050565b60006126678261210d565b6126718185611af8565b93506126818185602086016116de565b80840191505092915050565b6000612699828461265c565b915081905092915050565b7f416464726573733a2063616c6c20746f206e6f6e2d636f6e7472616374000000600082015250565b60006126da601d836116cd565b91506126e5826126a4565b602082019050919050565b60006020820190508181036000830152612709816126cd565b9050919050565b6000602082019050818103600083015261272a8184611719565b90509291505056fea26469706673582212209c64abdfef964b37bd813accc9c74e58d134689225caac5ff772b1a1f6eb4bec64736f6c634300081c0033",
  "devdoc": {
    "kind": "dev",
    "methods": {
      "ccipReceive((bytes32,uint64,bytes,bytes,(address,uint256)[]))": {
        "details": "Note ensure you check the msg.sender is the OffRampRouter.",
        "params": {
          "message": "CCIP Message."
        }
      },
      "constructor": {
        "params": {
          "_link": "The address of the link contract.",
          "_router": "The address of the router contract."
        }
      },
      "getLastReceivedMessageDetails()": {
        "returns": {
          "messageId": "The ID of the last received message.",
          "text": "The last received text."
        }
      },
      "getRouter()": {
        "returns": {
          "_0": "CCIP router address"
        }
      },
      "supportsInterface(bytes4)": {
        "details": "Should indicate whether the contract implements IAny2EVMMessageReceiver. e.g. return interfaceId == type(IAny2EVMMessageReceiver).interfaceId || interfaceId == type(IERC165).interfaceId This allows CCIP to check if ccipReceive is available before calling it. - If this returns false or reverts, only tokens are transferred to the receiver. - If this returns true, tokens are transferred and ccipReceive is called atomically. Additionally, if the receiver address does not have code associated with it at the time of execution (EXTCODESIZE returns 0), only tokens will be transferred.",
        "params": {
          "interfaceId": "The interfaceId to check."
        },
        "returns": {
          "_0": "true if the interfaceId is supported."
        }
      },
      "withdraw(address)": {
        "details": "This function reverts if there are no funds to withdraw or if the transfer fails. It should only be callable by the owner of the contract.",
        "params": {
          "_beneficiary": "The address to which the Ether should be sent."
        }
      },
      "withdrawToken(address,address)": {
        "details": "This function reverts with a 'NothingToWithdraw' error if there are no tokens to withdraw.",
        "params": {
          "_beneficiary": "The address to which the tokens will be sent.",
          "_token": "The contract address of the ERC20 token to be withdrawn."
        }
      }
    },
    "title": "- A simple messenger contract for sending/receiving string data across chains.",
    "version": 1
  },
  "userdoc": {
    "kind": "user",
    "methods": {
      "acceptOwnership()": {
        "notice": "Allows an ownership transfer to be completed by the recipient."
      },
      "ccipReceive((bytes32,uint64,bytes,bytes,(address,uint256)[]))": {
        "notice": "Called by the Router to deliver a message. If this reverts, any token transfers also revert. The message will move to a FAILED state and become available for manual execution."
      },
      "constructor": {
        "notice": "Constructor initializes the contract with the router address."
      },
      "getLastReceivedMessageDetails()": {
        "notice": "Fetches the details of the last received message."
      },
      "getRouter()": {
        "notice": "Return the current router"
      },
      "owner()": {
        "notice": "Get the current owner"
      },
      "supportsInterface(bytes4)": {
        "notice": "IERC165 supports an interfaceId."
      },
      "transferOwnership(address)": {
        "notice": "Allows an owner to begin transferring ownership to a new address."
      },
      "withdraw(address)": {
        "notice": "Allows the contract owner to withdraw the entire balance of Ether from the contract."
      },
      "withdrawToken(address,address)": {
        "notice": "Allows the owner of the contract to withdraw all tokens of a specific ERC20 token."
      }
    },
    "version": 1
  },
  "storageLayout": {
    "storage": [
      {
        "astId": 1695,
        "contract": "contracts/NFTPoolBurnAndMint.sol:NFTPoolBurnAndMint",
        "label": "s_owner",
        "offset": 0,
        "slot": "0",
        "type": "t_address"
      },
      {
        "astId": 1697,
        "contract": "contracts/NFTPoolBurnAndMint.sol:NFTPoolBurnAndMint",
        "label": "s_pendingOwner",
        "offset": 0,
        "slot": "1",
        "type": "t_address"
      },
      {
        "astId": 13313,
        "contract": "contracts/NFTPoolBurnAndMint.sol:NFTPoolBurnAndMint",
        "label": "s_lastReceivedMessageId",
        "offset": 0,
        "slot": "2",
        "type": "t_bytes32"
      },
      {
        "astId": 13315,
        "contract": "contracts/NFTPoolBurnAndMint.sol:NFTPoolBurnAndMint",
        "label": "s_lastReceivedText",
        "offset": 0,
        "slot": "3",
        "type": "t_string_storage"
      },
      {
        "astId": 13318,
        "contract": "contracts/NFTPoolBurnAndMint.sol:NFTPoolBurnAndMint",
        "label": "s_linkToken",
        "offset": 0,
        "slot": "4",
        "type": "t_contract(IERC20)3299"
      },
      {
        "astId": 13321,
        "contract": "contracts/NFTPoolBurnAndMint.sol:NFTPoolBurnAndMint",
        "label": "wnft",
        "offset": 0,
        "slot": "5",
        "type": "t_contract(WrappedMyToken)14174"
      }
    ],
    "types": {
      "t_address": {
        "encoding": "inplace",
        "label": "address",
        "numberOfBytes": "20"
      },
      "t_bytes32": {
        "encoding": "inplace",
        "label": "bytes32",
        "numberOfBytes": "32"
      },
      "t_contract(IERC20)3299": {
        "encoding": "inplace",
        "label": "contract IERC20",
        "numberOfBytes": "20"
      },
      "t_contract(WrappedMyToken)14174": {
        "encoding": "inplace",
        "label": "contract WrappedMyToken",
        "numberOfBytes": "20"
      },
      "t_string_storage": {
        "encoding": "bytes",
        "label": "string",
        "numberOfBytes": "32"
      }
    }
  }
}